{
  "contractName": "Simple",
  "abi": [
    {
      "constant": true,
      "inputs": [],
      "name": "data",
      "outputs": [
        {
          "internalType": "string",
          "name": "",
          "type": "string"
        }
      ],
      "payable": false,
      "stateMutability": "view",
      "type": "function"
    },
    {
      "constant": true,
      "inputs": [],
      "name": "name",
      "outputs": [
        {
          "internalType": "string",
          "name": "",
          "type": "string"
        }
      ],
      "payable": false,
      "stateMutability": "view",
      "type": "function"
    },
    {
      "constant": true,
      "inputs": [],
      "name": "get",
      "outputs": [
        {
          "internalType": "string",
          "name": "",
          "type": "string"
        }
      ],
      "payable": false,
      "stateMutability": "view",
      "type": "function"
    },
    {
      "constant": false,
      "inputs": [
        {
          "internalType": "string",
          "name": "_name",
          "type": "string"
        },
        {
          "internalType": "string",
          "name": "_data",
          "type": "string"
        }
      ],
      "name": "set",
      "outputs": [],
      "payable": false,
      "stateMutability": "nonpayable",
      "type": "function"
    }
  ],
  "bytecode": "0x60c060405260046080819052636e616d6560e01b60a09081526100259160009190610064565b50604080518082019091526004808252636461746160e01b602090920191825261005191600191610064565b5034801561005e57600080fd5b506100ff565b828054600181600116156101000203166002900490600052602060002090601f016020900481019282601f106100a557805160ff19168380011785556100d2565b828001600101855582156100d2579182015b828111156100d25782518255916020019190600101906100b7565b506100de9291506100e2565b5090565b6100fc91905b808211156100de57600081556001016100e8565b90565b6104d28061010e6000396000f3fe608060405234801561001057600080fd5b506004361061004c5760003560e01c806306fdde03146100515780636d4ce63c146100ce57806373d4a13a146100d6578063e942b516146100de575b600080fd5b61005961020d565b6040805160208082528351818301528351919283929083019185019080838360005b8381101561009357818101518382015260200161007b565b50505050905090810190601f1680156100c05780820380516001836020036101000a031916815260200191505b509250505060405180910390f35b61005961029b565b61005961037f565b61020b600480360360408110156100f457600080fd5b81019060208101813564010000000081111561010f57600080fd5b82018360208201111561012157600080fd5b8035906020019184600183028401116401000000008311171561014357600080fd5b91908080601f016020809104026020016040519081016040528093929190818152602001838380828437600092019190915250929594936020810193503591505064010000000081111561019657600080fd5b8201836020820111156101a857600080fd5b803590602001918460018302840111640100000000831117156101ca57600080fd5b91908080601f0160208091040260200160405190810160405280939291908181526020018383808284376000920191909152509295506103d9945050505050565b005b6000805460408051602060026001851615610100026000190190941693909304601f810184900484028201840190925281815292918301828280156102935780601f1061026857610100808354040283529160200191610293565b820191906000526020600020905b81548152906001019060200180831161027657829003601f168201915b505050505081565b60606000600160405160200180838054600181600116156101000203166002900480156102ff5780601f106102dd5761010080835404028352918201916102ff565b820191906000526020600020905b8154815290600101906020018083116102eb575b505080600160fd1b815250600101828054600181600116156101000203166002900480156103645780601f10610342576101008083540402835291820191610364565b820191906000526020600020905b815481529060010190602001808311610350575b50509250505060405160208183030381529060405290505b90565b60018054604080516020600284861615610100026000190190941693909304601f810184900484028201840190925281815292918301828280156102935780601f1061026857610100808354040283529160200191610293565b81516103ec906000906020850190610405565b508051610400906001906020840190610405565b505050565b828054600181600116156101000203166002900490600052602060002090601f016020900481019282601f1061044657805160ff1916838001178555610473565b82800160010185558215610473579182015b82811115610473578251825591602001919060010190610458565b5061047f929150610483565b5090565b61037c91905b8082111561047f576000815560010161048956fea265627a7a72315820c19e906f21785fa972b23d901404253b0cdecd9a61d8ed2d9923e91d78bd971c64736f6c63430005100032",
  "source": "pragma solidity ^0.5.0;\r\n\r\ncontract Simple{\r\n    string public name =\"name\";\r\n    string public data =\"data\";\r\n\r\n    function get() public view returns(string memory){\r\n        return string(abi.encodePacked(name, \" \", data));\r\n    }\r\n\r\n    function set(string memory _name, string memory _data) public{\r\n        name = _name;\r\n        data = _data;\r\n    }\r\n}\r\n",
  "sourcePath": "C:\\Users\\sawye\\Documents\\SpartanBlockchain\\spartan-truffle-box\\contracts\\Simple.sol",
  "compiler": {
    "name": "solc",
    "version": "0.5.16+commit.9c3226ce.Emscripten.clang"
  },
  "schemaVersion": "3.0.23",
  "updatedAt": "2020-04-09T23:35:51.592Z",
  "networkType": "ethereum",
  "devdoc": {
    "methods": {}
  },
  "userdoc": {
    "methods": {}
  }
}